8=FIX.4.4|9=151|35=A|34=1|49=lpwp6653|52=20201016-23:50:57.593|56=BITSTAMP|553=w8poYpKKww6gHqclxdzxYYcVnHODFnAz|554=eSEMPHiajtPWk3ZvYXFx4MhziuzqIyRc|98=0|108=30|141=Y|10=177|8=FIX.4.4|9=112|35=V|34=2|49=lpwp6653|52=20201016-23:50:57.868|56=BITSTAMP|146=1|55=BTC/USD|262=1|263=1|264=4|267=2|269=0|269=1|10=031|8=FIX.4.4|9=112|35=V|34=3|49=lpwp6653|52=20201016-23:50:57.868|56=BITSTAMP|146=1|55=ETH/USD|262=2|263=1|264=4|267=2|269=0|269=1|10=041|8=FIX.4.4|9=112|35=V|34=4|49=lpwp6653|52=20201016-23:50:57.868|56=BITSTAMP|146=1|55=LTC/USD|262=3|263=1|264=4|267=2|269=0|269=1|10=045|8=FIX.4.4|9=112|35=V|34=5|49=lpwp6653|52=20201016-23:51:02.868|56=BITSTAMP|146=1|55=BTC/USD|262=1|263=2|264=4|267=2|269=0|269=1|10=026|8=FIX.4.4|9=112|35=V|34=6|49=lpwp6653|52=20201016-23:51:02.868|56=BITSTAMP|146=1|55=ETH/USD|262=2|263=2|264=4|267=2|269=0|269=1|10=036|8=FIX.4.4|9=112|35=V|34=7|49=lpwp6653|52=20201016-23:51:02.868|56=BITSTAMP|146=1|55=LTC/USD|262=3|263=2|264=4|267=2|269=0|269=1|10=040|