8=FIX.4.4|9=151|35=A|34=1|49=lpwp6653|52=20201017-00:30:51.320|56=BITSTAMP|553=w8poYpKKww6gHqclxdzxYYcVnHODFnAz|554=eSEMPHiajtPWk3ZvYXFx4MhziuzqIyRc|98=0|108=30|141=Y|10=153|8=FIX.4.4|9=118|35=V|34=2|49=lpwp6653|52=20201017-00:30:51.592|56=BITSTAMP|146=1|55=BTC/USD|262=1|263=1|264=0|267=3|269=0|269=1|269=2|10=033|8=FIX.4.4|9=118|35=V|34=3|49=lpwp6653|52=20201017-00:30:51.592|56=BITSTAMP|146=1|55=ETH/USD|262=2|263=1|264=0|267=3|269=0|269=1|269=2|10=043|8=FIX.4.4|9=118|35=V|34=4|49=lpwp6653|52=20201017-00:30:51.592|56=BITSTAMP|146=1|55=LTC/USD|262=3|263=1|264=0|267=3|269=0|269=1|269=2|10=047|8=FIX.4.4|9=121|35=j|34=5|49=lpwp6653|52=20201017-00:30:51.837|56=BITSTAMP|45=3|58=Conditionally Required Field Missing (55)|372=X|380=5|10=137|8=FIX.4.4|9=121|35=j|34=6|49=lpwp6653|52=20201017-00:30:52.156|56=BITSTAMP|45=7|58=Conditionally Required Field Missing (55)|372=X|380=5|10=137|8=FIX.4.4|9=121|35=j|34=7|49=lpwp6653|52=20201017-00:30:52.171|56=BITSTAMP|45=9|58=Conditionally Required Field Missing (55)|372=X|380=5|10=137|8=FIX.4.4|9=122|35=j|34=8|49=lpwp6653|52=20201017-00:30:52.321|56=BITSTAMP|45=14|58=Conditionally Required Field Missing (55)|372=X|380=5|10=180|8=FIX.4.4|9=122|35=j|34=9|49=lpwp6653|52=20201017-00:30:52.806|56=BITSTAMP|45=27|58=Conditionally Required Field Missing (55)|372=X|380=5|10=193|8=FIX.4.4|9=123|35=j|34=10|49=lpwp6653|52=20201017-00:30:55.872|56=BITSTAMP|45=75|58=Conditionally Required Field Missing (55)|372=X|380=5|10=243|8=FIX.4.4|9=119|35=V|34=11|49=lpwp6653|52=20201017-00:30:56.592|56=BITSTAMP|146=1|55=BTC/USD|262=1|263=2|264=0|267=3|269=0|269=1|269=2|10=088|8=FIX.4.4|9=119|35=V|34=12|49=lpwp6653|52=20201017-00:30:56.592|56=BITSTAMP|146=1|55=ETH/USD|262=2|263=2|264=0|267=3|269=0|269=1|269=2|10=098|8=FIX.4.4|9=119|35=V|34=13|49=lpwp6653|52=20201017-00:30:56.592|56=BITSTAMP|146=1|55=LTC/USD|262=3|263=2|264=0|267=3|269=0|269=1|269=2|10=102|